:0800000022C0FECFFDCFFCCFB2
:10000800FBCFFACFF9CFF8CFF7CFF6CFF5CFF4CFB4
:10001800F3CFF2CFF1CFF0CFEFCFEECFEDCFECCFE4
:10002800EBCF3F065B4F666D7C077F6F00000000DB
:100038000100020034000200040036000000F894B9
:10004800EE27ECBBF1E0FBBFEBBFE5BF8DE0A2E024
:10005800BB27ED938A95E9F780E092E0A0E6ED935F
:100068000197E9F7E8E3F0E085919591009761F051
:10007800A591B59105901590BF01F00105900D92DD
:100088000197E1F7FB01F0CFEFE5EDBFE2E0EEBF4E
:10009800C0EED0E000C0EFEFEABBE0E0EBBBEFEF73
:1000A800E7BBE0E0E8BBE4BBE5BBE1BBEFEFE2BBED
:1000B800E0E0E3BFE2BFECBFEFBDEEBDEDBDECBDE0
:1000C800E7BDE6BDEBBDEABDE9BDE8BDE2BDE5BD06
:1000D800E4BDE3BDE9BFE5BFE4BFEAB9E0E8E8B9DC
:1000E800E0E0E0BFE6B9EDB9E6BF809902C0E89468
:1000F80001C0689421F821FC02C020FC01C00EC098
:100108005394EAE0E51511F443945524EAE0E41524
:1001180011F444245524A8E2B0E018D021FE02C00E
:1001280020FE01C003C0A8E2B0E010D0E42D08D042
:10013800EBBBE52D05D0E8BB21FA20F8D6CFFFCFE1
:10014800F0E0E65DFF4FE491E0950895109639F0F0
:10015800A8958AEF90E00197F1F71197C9F70895EC
:00000001FF
