:0C00000019C032C038C0FCCFFBCFFACFD3
:10000C00F9CFF8CFF7CFF6CFF5CFF4CFF3CFF2CFC0
:10001C00F1CFF0CFEFCFEECFEDCFECCFEBCF3F0664
:10002C005B4F666D7C077F6FF894EE27ECBBF1E0BD
:10003C00FBBFEBBFE5BF8DE0A2E0BB27ED938A953C
:10004C00E9F780E092E0A0E6ED930197E9F7EFE5A0
:10005C00EDBFE2E0EEBFC0EED0E01DC059D0E9E04C
:10006C005E1608F45394A2E306C052D0E0E0E51506
:10007C0008F45A94A8ECB0E059D0E991EFBFF9918B
:10008C00E991B991A9919991899179916991F99095
:10009C00199009901895E0E0EABBEBBBEFEFE7BBDA
:1000AC00E0E0E8BBE4BBE5BBE1BBE8E0E2BBE0E0E1
:1000BC00E3BFE2BFECBFEFBDEEBDEDBDECBDE7BDF8
:1000CC00E6BDEBBDEABDE9BDE8BDE2BDE5BDE4BD05
:1000DC00E3BDE9BFEBB7E06CEBBFE3E0E5BFE0E00D
:1000EC00E4BFE0ECEABFE0E0EAB9E0E8E8B9E0E060
:1000FC00E0BFE6B9EDB9E6BF7894E2E05E2EE52DFF
:10010C00F0E0E65DFF4FE491E095E8BBF8CFFFCF60
:10011C000A921A92FA926A937A938A939A93AA936E
:10012C00BA93EA93FA93EFB7EA930895109639F0DD
:10013C00A8958AEF90E00197F1F71197C9F7089508
:00000001FF
