:100000001DC0FECFFDCFFCCFFBCFFACFF9CFF8CF8D
:10001000F7CFF6CFF5CFF4CFF3CFF2CFF1CFF0CFCC
:10002000EFCFEECFEDCFECCFEBCF3F065B4F666D62
:100030007C077F6F0A00E0002A000000F894EE279A
:10004000ECBBF1E0FBBFEBBFE5BFF8E1F1BDE1BD0B
:100050008DE0A2E0BB27ED938A95E9F780E092E07E
:10006000A0E6ED930197E9F7E4E3F0E0859195913F
:10007000009761F0A591B59105901590BF01F00131
:1000800005900D920197E1F7FB01F0CFEFE5EDBF91
:10009000E2E0EEBFC0EED0E000C0E0E0EBBBEFEF8F
:1000A000EABBE0E0E8BBE7BBE5BBE4BBE2BBE1BB2E
:1000B000E3BFE2BFECBFEFBDEEBDEDBDECBDE7BD04
:1000C000E6BDEBBDEABDE9BDE8BDE2BDE5BDE4BD11
:1000D000E3BDE5BFE4BFE9BFEAB9E0E8E8B9E0E0C5
:1000E000E0BFE6B9EDB9E6BFEEE333D011F4E7E0E7
:1000F0005E2EE8E2E41511F4E8E05E2EE8E1E41596
:1001000011F4E9E05E2EEDE324D011F4E4E05E2E7C
:10011000E8E2E41511F4E5E05E2EE8E1E41511F4FF
:10012000E6E05E2EEBE315D011F4E1E05E2EE8E2AE
:10013000E41511F4E2E05E2EE8E1E41511F4E3E0E9
:100140005E2EE52DF0E0E052FF4FE081EBBBCCCF1F
:10015000FFCFE5BBE3B3E8734E2EE0E3E41508956B
:00000001FF
