:060000001DC0FECFFDCF84
:10000600FCCFFBCFFACFF9CFF8CFF7CFF6CFF5CFAE
:10001600F4CFF3CFF2CFF1CFF0CFEFCF0000000057
:1000260000000000000000000200020022000A009A
:10003600040024000000F894EE27ECBBF1E0FBBFBF
:10004600EBBFE5BFE6BFF8E1F1BDE1BD8DE0A2E0A3
:10005600BB27ED938A95E9F780E092E0A0E6ED9361
:100066000197E9F7EEE2F0E085919591009761F04E
:10007600A591B59105901590BF01F00105900D92DF
:100086000197E1F7FB01F0CFEFE5EDBFE2E0EEBF50
:10009600C0EED0E06BC0BA93AA93AA24BB2448D181
:1000A600AE16BF060CF05EC046D164D1309701F1A2
:1000B60042D149D1E130A0E0FA0711F4E1E017C0DE
:1000C6003AD141D1E230A0E0FA0711F4E2E00FC0E4
:1000D60032D139D1E330A0E0FA0711F4E4E007C0E9
:1000E6002AD131D1E430A0E0FA0729F4E8E0EBBBED
:1000F600A4EFB1E043D19E9902C0E89401C0689490
:1001060035F826FE02C035FE01C01EC0E0E0EBBB9E
:100116001DD1CE16DF06B4F49C9902C0E89401C046
:10012600689433F824FE02C033FE01C002C00ED12B
:100136006F0124FC02C033FC01C001C00AD133FAAE
:1001460024F8E6CFCC24DD2426FC02C035FC01C011
:1001560003C0A5E0B0E012D135FA26F8F5013196D4
:100166005F019DCFE0E0EBBB22960895EFE0EABB8E
:10017600E0E0EBBBE7BBE8BBE4BBEFEFE5BBE0E0F1
:10018600E1BBE2BBE6B9E7B9E3BFE2BFE1BFEFBD62
:10019600EEBDEDBDECBDE5BDE4BDEBBDEABDE9BD23
:1001A600E8BDE9BFE5BFE6BFEAB9E0E8E8B9E0E0E7
:1001B600EDB99C9902C0E89401C0689433F824FE16
:1001C60002C033FE01C003C0E3E0F0E02F0124FCCF
:1001D60002C033FC01C001C0BCD033FA24F89D999B
:1001E60002C0E89401C0689434F825FE02C034FECB
:1001F60001C002C0ABD02F0125FC02C034FC01C0F7
:1002060001C0A7D034FA25F8042C052809F06CC0E3
:100216009DD06E167F060CF064C0989902C0E894D3
:1002260001C0689427F820FE02C027FE01C003C063
:1002360093D08CD099D020FC02C027FC01C001C00D
:1002460088D027FA20F8999902C0E89401C06894EA
:1002560030F821FE02C030FE01C004C07DD0E2E0CD
:10026600F0E082D021FC02C030FC01C001C071D098
:1002760030FA21F89A9902C0E89401C0689431F8DE
:1002860022FE02C031FE01C004C066D0E3E0F0E009
:100296006BD022FC02C031FC01C001C05AD031FA39
:1002A60022F89B9902C0E89401C0689432F823FEB4
:1002B60002C032FE01C004C04FD0E4E0F0E054D0EA
:1002C60023FC02C032FC01C001C043D032FA23F83D
:1002D6002FD0E415F50521F439D03F0129D02F019F
:1002E60097CF6624772421C031D0E415F50599F41B
:1002F600E8E0F0E08E169F064CF42ED0E0E0F0E049
:10030600ED93FC93F40131964F01F2CF88249924A2
:10031600442455240AC0E3E0F0E0E415F50529F489
:10032600A0EEB0E0B8DE04D02F0143CF0000FECF30
:10033600EAE0F0E00895F501A881B981EE0FFF1F0C
:10034600AE0FBF1F0895ED91FD910895E1E0F0E035
:100356000895AEE1B0E012C0F201A0EEB0E0EE0FFB
:10036600FF1FAE0FBF1F0895ED93FC93F201319668
:100376002F010895ED91FC9111970895109639F08B
:10038600A8958AEF90E00197F1F71197C9F70895BC
:00000001FF
