:0200000021C01D
:10000200FECFFDCFFCCFFBCFFACFF9CFF8CFF7CFA2
:10001200F6CFF5CFF4CFF3CFF2CFF1CFF0CFEFCFD2
:10002200EECFEDCFECCFEBCF00003F065B4F666D1E
:100032007C077F6F010002002A000A00E0002C000A
:100042000000F894EE27ECBBF1E0FBBFEBBFE5BF8D
:10005200F8E1F1BDE1BD8DE0A2E0BB27ED938A9509
:10006200E9F780E092E0A0E6ED930197E9F7E6E395
:10007200F0E085919591009761F0A591B591059079
:100082001590BF01F00105900D920197E1F7FB0178
:10009200F0CFEFE5EDBFE2E0EEBFC0EED0E000C092
:1000A200E0E0EBBBEFEFEABBE0E0E8BBE7BBE5BBC0
:1000B200E4BBE2BBE1BBE3BFE2BFECBFEFBDEEBD21
:1000C200EDBDECBDE7BDE6BDEBBDEABDE9BDE8BDFA
:1000D200E2BDE5BDE4BDE3BDE5BFE4BFE9BFEAB90A
:1000E200E0E8E8B9E0E0E0BFE6B9EDB9E6BF36D056
:1000F20038D0EB3018F032D0E0E03FD02FD031D002
:100102005E2E0ED0E52DF0E0E052FF4FE081E0954B
:10011200EBBB819903C0E52D21D02FD0F2CFFFCFC9
:10012200809902C0E89401C0689421F820FE02C0C0
:1001320021FE01C008C05394EAE05E1608F055247F
:10014200A8E2B0E02BD020FC02C021FC01C003C019
:10015200A8E2B0E023D021FA20F80895A0E0B0E0B0
:100162000895E199FECFFF93FFB7F894AEBBBFBBF2
:10017200E09AEDB3FFBFFF910895E19B02C0A895FD
:10018200FCCF9FB7F894AEBBBFBBE09A8DB3E81724
:1001920019F0EDBBE29AE19A9FBF0895109639F0EB
:1001A200A8958AEF90E00197F1F71197C9F70895A2
:00000001FF
