:0E00000021C0FECFFDCFFCCFFBCFFACFF9CF52
:10000E00F8CFF7CFF6CFF5CFF4CFF3CFF2CFF1CFC6
:10001E00F0CFEFCFEECFEDCFECCFEBCF0000000067
:10002E000000000000000000020002002A000A008A
:10003E0004002C000000F894EE27ECBBF1E0FBBFAF
:10004E00EBBFE5BF8DE0A2E0BB27ED938A95E9F704
:10005E0080E092E0A0E6ED930197E9F7E6E3F0E0A9
:10006E0085919591009761F0A591B59105901590A8
:10007E00BF01F00105900D920197E1F7FB01F0CF62
:10008E00EFE5EDBFE2E0EEBFC0EED0E06CC06FD1A9
:10009E008D01AA24BB244AD1AE16BF060CF05EC059
:1000AE0048D168D1309701F144D14AD1E130A0E076
:1000BE00FA0711F4E1E017C03CD142D1E230A0E0E2
:1000CE00FA0711F4E2E00FC034D13AD1E330A0E0E8
:1000DE00FA0711F4E4E007C02CD132D1E430A0E0ED
:1000EE00FA0729F4E8E0E2BBA4EFB1E047D1B699F4
:1000FE0002C0E89401C0689435F826FE02C035FEB1
:10010E0001C01EC0E0E0E2BB1ED1CE16DF06B4F485
:10011E00B49902C0E89401C0689433F824FE02C07A
:10012E0033FE01C002C00FD16F0124FC02C033FCAC
:10013E0001C001C00BD133FA24F8E6CFCC24DD2464
:10014E0026FC02C035FC01C003C0A5E0B0E016D10C
:10015E0035FA26F8F50131965F019DCFE0E0E2BB5E
:10016E00099119910895E0E0EABBEBBBE7BBE8BB50
:10017E00E4BBE5BBE1BBE2BBE3BFE2BFECBFEFBD5F
:10018E00EEBDEDBDECBDE7BDE6BDEBBDEABDE9BD27
:10019E00E8BDE2BDE5BDE4BDE3BDE9BFE5BFE4BF3B
:1001AE00EAB9E0E8E8B9E0E0E0BFE6B9EDB9E6BFEC
:1001BE00B49902C0E89401C0689433F824FE02C0DA
:1001CE0033FE01C003C0E3E0F0E02F0124FC02C0C7
:1001DE0033FC01C001C0BAD033FA24F8B59902C07D
:1001EE00E89401C0689434F825FE02C034FE01C0C4
:1001FE0002C0A9D02F0125FC02C034FC01C001C0F1
:10020E00A5D034FA25F8042C052809F06CC09BD033
:10021E006E167F060CF064C0B09902C0E89401C05F
:10022E00689427F820FE02C027FE01C003C091D0BB
:10023E008AD097D020FC02C027FC01C001C086D016
:10024E0027FA20F8B19902C0E89401C0689430F8FA
:10025E0021FE02C030FE01C004C07BD0E2E0F0E01F
:10026E0080D021FC02C030FC01C001C06FD030FA3A
:10027E0021F8B29902C0E89401C0689431F822FEC8
:10028E0002C031FE01C004C064D0E3E0F0E069D0EA
:10029E0022FC02C031FC01C001C058D031FA22F854
:1002AE00B39902C0E89401C0689432F823FE02C0EC
:1002BE0032FE01C004C04DD0E4E0F0E052D023FC89
:1002CE0002C032FC01C001C041D032FA23F82ED058
:1002DE00E415F50521F437D03F0128D02F0197CF33
:1002EE006624772421C02FD0E415F50599F4E8E0B3
:1002FE00F0E08E169F064CF42CD0E0E0F0E0ED938B
:10030E00FC93F40131964F01F2CF882499244424B2
:10031E0055240AC0E3E0F0E0E415F50529F4A0EE5B
:10032E00B0E0B5DE03D02F0143CFFFCFEAE0F0E01F
:10033E000895F501D801EE0FFF1FAE0FBF1F0895F0
:10034E00ED91FD910895E1E0F0E00895AEE1B0E0A9
:10035E0015C0F201A0EEB0E0EE0FFF1FAE0FBF1FF3
:10036E000895ED93FC93F20131962F0108951A939F
:10037E000A930895ED91FC9111970895109639F016
:10038E00A8958AEF90E00197F1F71197C9F70895B4
:00000001FF
