:060000001EC0FECFFDCF83
:10000600FCCFFBCFFACFF9CFF8CFF7CFF6CFF5CFAE
:10001600F4CFF3CFF2CFF1CFF0CFEFCFEECFEDCFDE
:10002600ECCFEBCF3F065B4F666D7C077F6F000022
:100036000100020034000000F894EE27ECBBF1E06A
:10004600FBBFEBBFE5BF8DE0A2E0BB27ED938A9532
:10005600E9F780E092E0A0E6ED930197E9F7E6E3A1
:10006600F0E085919591009761F0A591B591059085
:100076001590BF01F00105900D920197E1F7FB0184
:10008600F0CFEFE5EDBFE2E0EEBFC0EED0E000C09E
:10009600EFEFEABBEBBBE7BBE0E0E8BBEFEFE4BBAF
:1000A600E0E0E5BBE1BBE7E0E2BBE0E0E3BFE2BFE7
:1000B600ECBFEFBDEEBDEDBDECBDE7BDE6BDEBBDF6
:1000C600EABDE9BDE8BDE2BDE5BDE4BDE3BDE9BF0E
:1000D600E5BFE4BFEAB9E0E8E8B9E0E0E0BFE6B9C9
:1000E600EDB9E6BF809902C0E89401C0689421F892
:1000F600819902C0E89401C0689423F8829902C0ED
:10010600E89401C0689425F820FE02C021FE01C0D3
:1001160005C077246624992455245DD022FE02C0AA
:1001260023FE01C003C0E1E05E2E55D024FE02C0CE
:1001360025FE01C004C05524E1E04E2E50D020FC1F
:1001460002C021FC01C001C04AD022FC02C023FC2F
:1001560001C001C044D024FC02C025FC01C001C07E
:100166003ED0552011F4442009F004C077246624BB
:10017600992428C0E1E0E51511F4442009F002C0F5
:1001860031D020C0552019F4E1E0E41509F01AC079
:10019600A0E1B7E23BD09394EAE0E91511F4639449
:1001A6009924EAE0E61511F473946624E5E0E71570
:1001B60029F4E9E0E61511F4E91509F003C0E1E0D8
:1001C6005E2E442421FA20F823FA22F825FA24F890
:1001D60009D088CFFFCF4424A8E2B0E017C0A8E238
:1001E600B0E014C0E72DF0E0E65DFF4F049008BADA
:1001F600E62DF0E0E65DFF4FE491E095EBBBE92DDF
:10020600F0E0E65DFF4F049005BA0895109639F0C8
:10021600A8958AEF90E00197F1F71197C9F708952D
:00000001FF
