:040000001AC0FECF55
:10000400FDCFFCCFFBCFFACFF9CFF8CFF7CFF6CFA8
:10001400F5CFF4CFF3CFF2CFF1CFF0CFEFCFEECFD8
:10002400EDCFECCFEBCF00000000040004002A0069
:100034000000F894EE27ECBBF1E0FBBFEBBFE5BF9B
:100044008DE0A2E0BB27ED938A95E9F780E092E08A
:10005400A0E6ED930197E9F7EEE2F0E08591959142
:10006400009761F0A591B59105901590BF01F0013D
:1000740005900D920197E1F7FB01F0CFEFE5EDBF9D
:10008400E2E0EEBFC0EED0E000C0E0E0EABBEBBBD4
:10009400E7BBE8BBE4BBE5BBEFEFE1BBE0E0E2BB01
:1000A400E3BFE2BFECBFEFBDEEBDEDBDECBDE7BD10
:1000B400E6BDEBBDEABDE9BDE8BDE2BDE5BDE4BD1D
:1000C400E3BDE9BFE5BFE4BFEAB9E0E8E8B9E0E0D1
:1000D400E0BFE6B9EDB9E6BF44245524662477248D
:1000E400E4E1F0E06E167F066CF4B09B04C0F2010C
:1000F40031962F013197AAE0B0E050D0F301319648
:100104003F01EECFE1E0F0E043D024F0E4E0F0E0A2
:1001140042D00CF406C0909A919893989498929A2D
:1001240034C0E5E0F0E034D024F0E9E0F0E033D08E
:100134000CF406C09098919A93989498929A25C03A
:10014400EAE0F0E025D024F0EEE0F0E024D00CF476
:1001540007C090989198939A9498959A929816C0FB
:10016400EFE0F0E015D024F0E3E1F0E014D00CF47B
:1001740007C0909891989398949A959A929806C0EB
:1001840000240414050414F092989598A5CFFFCF89
:100194004E165F060895E415F5050895109639F096
:1001A400A8958AEF90E00197F1F71197C9F70895A0
:00000001FF
